{
  "contractName": "gig",
  "abi": [
    {
      "inputs": [],
      "stateMutability": "nonpayable",
      "type": "constructor"
    },
    {
      "anonymous": false,
      "inputs": [
        {
          "indexed": true,
          "internalType": "address",
          "name": "previousOwner",
          "type": "address"
        },
        {
          "indexed": true,
          "internalType": "address",
          "name": "newOwner",
          "type": "address"
        }
      ],
      "name": "OwnershipTransferred",
      "type": "event"
    },
    {
      "anonymous": false,
      "inputs": [
        {
          "indexed": false,
          "internalType": "address",
          "name": "_client",
          "type": "address"
        }
      ],
      "name": "clientAdded",
      "type": "event"
    },
    {
      "anonymous": false,
      "inputs": [
        {
          "indexed": false,
          "internalType": "address",
          "name": "_from",
          "type": "address"
        },
        {
          "indexed": false,
          "internalType": "uint256",
          "name": "_amount",
          "type": "uint256"
        }
      ],
      "name": "logDeposit",
      "type": "event"
    },
    {
      "anonymous": false,
      "inputs": [
        {
          "indexed": false,
          "internalType": "address",
          "name": "_by",
          "type": "address"
        },
        {
          "indexed": false,
          "internalType": "bool",
          "name": "_approved",
          "type": "bool"
        }
      ],
      "name": "logFullfilled",
      "type": "event"
    },
    {
      "anonymous": false,
      "inputs": [
        {
          "indexed": false,
          "internalType": "address",
          "name": "_by",
          "type": "address"
        }
      ],
      "name": "logWithdraw",
      "type": "event"
    },
    {
      "anonymous": false,
      "inputs": [
        {
          "indexed": false,
          "internalType": "string",
          "name": "_terms",
          "type": "string"
        },
        {
          "indexed": false,
          "internalType": "address",
          "name": "_client",
          "type": "address"
        },
        {
          "indexed": false,
          "internalType": "address",
          "name": "_owner",
          "type": "address"
        }
      ],
      "name": "termsAgreedOn",
      "type": "event"
    },
    {
      "anonymous": false,
      "inputs": [
        {
          "indexed": false,
          "internalType": "string",
          "name": "_at",
          "type": "string"
        },
        {
          "indexed": false,
          "internalType": "uint256",
          "name": "_cost",
          "type": "uint256"
        }
      ],
      "name": "termsCreated",
      "type": "event"
    },
    {
      "inputs": [],
      "name": "agreementFullfilled",
      "outputs": [
        {
          "internalType": "bool",
          "name": "",
          "type": "bool"
        }
      ],
      "stateMutability": "view",
      "type": "function",
      "constant": true
    },
    {
      "inputs": [],
      "name": "agreementName",
      "outputs": [
        {
          "internalType": "string",
          "name": "",
          "type": "string"
        }
      ],
      "stateMutability": "view",
      "type": "function",
      "constant": true
    },
    {
      "inputs": [],
      "name": "balance",
      "outputs": [
        {
          "internalType": "uint256",
          "name": "",
          "type": "uint256"
        }
      ],
      "stateMutability": "view",
      "type": "function",
      "constant": true
    },
    {
      "inputs": [],
      "name": "client",
      "outputs": [
        {
          "internalType": "address",
          "name": "",
          "type": "address"
        }
      ],
      "stateMutability": "view",
      "type": "function",
      "constant": true
    },
    {
      "inputs": [],
      "name": "contractWriter",
      "outputs": [
        {
          "internalType": "address",
          "name": "",
          "type": "address"
        }
      ],
      "stateMutability": "view",
      "type": "function",
      "constant": true
    },
    {
      "inputs": [],
      "name": "cost",
      "outputs": [
        {
          "internalType": "uint256",
          "name": "",
          "type": "uint256"
        }
      ],
      "stateMutability": "view",
      "type": "function",
      "constant": true
    },
    {
      "inputs": [],
      "name": "owner",
      "outputs": [
        {
          "internalType": "address",
          "name": "",
          "type": "address"
        }
      ],
      "stateMutability": "view",
      "type": "function",
      "constant": true
    },
    {
      "inputs": [],
      "name": "renounceOwnership",
      "outputs": [],
      "stateMutability": "nonpayable",
      "type": "function"
    },
    {
      "inputs": [],
      "name": "terms",
      "outputs": [
        {
          "internalType": "string",
          "name": "",
          "type": "string"
        }
      ],
      "stateMutability": "view",
      "type": "function",
      "constant": true
    },
    {
      "inputs": [],
      "name": "termsApproved",
      "outputs": [
        {
          "internalType": "bool",
          "name": "",
          "type": "bool"
        }
      ],
      "stateMutability": "view",
      "type": "function",
      "constant": true
    },
    {
      "inputs": [
        {
          "internalType": "address",
          "name": "newOwner",
          "type": "address"
        }
      ],
      "name": "transferOwnership",
      "outputs": [],
      "stateMutability": "nonpayable",
      "type": "function"
    },
    {
      "inputs": [
        {
          "internalType": "string",
          "name": "_terms",
          "type": "string"
        },
        {
          "internalType": "string",
          "name": "_agreementName",
          "type": "string"
        },
        {
          "internalType": "uint256",
          "name": "_cost",
          "type": "uint256"
        },
        {
          "internalType": "address",
          "name": "_client",
          "type": "address"
        }
      ],
      "name": "makeTerms",
      "outputs": [
        {
          "internalType": "bool",
          "name": "",
          "type": "bool"
        }
      ],
      "stateMutability": "nonpayable",
      "type": "function"
    },
    {
      "inputs": [
        {
          "internalType": "bool",
          "name": "_approve",
          "type": "bool"
        }
      ],
      "name": "approveTerms",
      "outputs": [
        {
          "internalType": "bool",
          "name": "",
          "type": "bool"
        }
      ],
      "stateMutability": "payable",
      "type": "function",
      "payable": true
    },
    {
      "inputs": [],
      "name": "deposit",
      "outputs": [
        {
          "internalType": "bool",
          "name": "",
          "type": "bool"
        }
      ],
      "stateMutability": "payable",
      "type": "function",
      "payable": true
    },
    {
      "inputs": [],
      "name": "getBalance",
      "outputs": [
        {
          "internalType": "uint256",
          "name": "",
          "type": "uint256"
        }
      ],
      "stateMutability": "view",
      "type": "function",
      "constant": true
    },
    {
      "inputs": [
        {
          "internalType": "bool",
          "name": "_approve",
          "type": "bool"
        }
      ],
      "name": "fulfillAgreement",
      "outputs": [
        {
          "internalType": "bool",
          "name": "",
          "type": "bool"
        }
      ],
      "stateMutability": "nonpayable",
      "type": "function"
    },
    {
      "inputs": [],
      "name": "withdraw",
      "outputs": [],
      "stateMutability": "nonpayable",
      "type": "function"
    }
  ],
  "bytecode": "0x60806040524760055534801561001457600080fd5b5061003161002661008460201b60201c565b61008c60201b60201c565b61003f61015060201b60201c565b600360006101000a81548173ffffffffffffffffffffffffffffffffffffffff021916908373ffffffffffffffffffffffffffffffffffffffff160217905550610179565b600033905090565b60008060009054906101000a900473ffffffffffffffffffffffffffffffffffffffff169050816000806101000a81548173ffffffffffffffffffffffffffffffffffffffff021916908373ffffffffffffffffffffffffffffffffffffffff1602179055508173ffffffffffffffffffffffffffffffffffffffff168173ffffffffffffffffffffffffffffffffffffffff167f8be0079c531659141344cd1fd0a4f28419497f9722a3daafe3b4186f6b6457e060405160405180910390a35050565b60008060009054906101000a900473ffffffffffffffffffffffffffffffffffffffff16905090565b61175b806101886000396000f3fe6080604052600436106100fe5760003560e01c80637cbd969911610095578063c8044c1411610064578063c8044c1414610303578063d0e30db014610333578063d174180c14610351578063d50256251461037c578063f2fde38b146103a7576100fe565b80637cbd9699146102455780638da5cb5b146102825780639e757aa6146102ad578063b69ef8a8146102d8576100fe565b80631794472d116100d15780631794472d146101c15780631f32c0e4146101ec5780633ccfd60b14610217578063715018a61461022e576100fe565b806302a7cb7314610103578063109e94cf1461014057806312065fe01461016b57806313faede614610196575b600080fd5b34801561010f57600080fd5b5061012a6004803603810190610125919061101c565b6103d0565b60405161013791906110d6565b60405180910390f35b34801561014c57600080fd5b50610155610509565b6040516101629190611100565b60405180910390f35b34801561017757600080fd5b5061018061052f565b60405161018d919061112a565b60405180910390f35b3480156101a257600080fd5b506101ab610537565b6040516101b8919061112a565b60405180910390f35b3480156101cd57600080fd5b506101d661053d565b6040516101e39190611100565b60405180910390f35b3480156101f857600080fd5b50610201610563565b60405161020e91906110d6565b60405180910390f35b34801561022357600080fd5b5061022c610576565b005b34801561023a57600080fd5b50610243610653565b005b34801561025157600080fd5b5061026c60048036038101906102679190611171565b6106db565b60405161027991906110d6565b60405180910390f35b34801561028e57600080fd5b506102976107c8565b6040516102a49190611100565b60405180910390f35b3480156102b957600080fd5b506102c26107f1565b6040516102cf91906110d6565b60405180910390f35b3480156102e457600080fd5b506102ed610804565b6040516102fa919061112a565b60405180910390f35b61031d60048036038101906103189190611171565b61080a565b60405161032a91906110d6565b60405180910390f35b61033b61093f565b60405161034891906110d6565b60405180910390f35b34801561035d57600080fd5b50610366610aab565b6040516103739190611226565b60405180910390f35b34801561038857600080fd5b50610391610b39565b60405161039e9190611226565b60405180910390f35b3480156103b357600080fd5b506103ce60048036038101906103c99190611248565b610bc7565b005b60006103da610cbf565b73ffffffffffffffffffffffffffffffffffffffff166103f86107c8565b73ffffffffffffffffffffffffffffffffffffffff161461044e576040517f08c379a0000000000000000000000000000000000000000000000000000000008152600401610445906112c1565b60405180910390fd5b8360029080519060200190610464929190610d8b565b50846001908051906020019061047b929190610d8b565b508260068190555081600460006101000a81548173ffffffffffffffffffffffffffffffffffffffff021916908373ffffffffffffffffffffffffffffffffffffffff1602179055507fa5f7fdd61dc41d194a0857e417d545f42c46bb01b6749b9f4b4ab30e5dfa7e3e85846040516104f59291906112e1565b60405180910390a160019050949350505050565b600460009054906101000a900473ffffffffffffffffffffffffffffffffffffffff1681565b600047905090565b60065481565b600360009054906101000a900473ffffffffffffffffffffffffffffffffffffffff1681565b600360159054906101000a900460ff1681565b60011515600360159054906101000a900460ff161515146105cc576040517f08c379a00000000000000000000000000000000000000000000000000000000081526004016105c390611383565b60405180910390fd5b3373ffffffffffffffffffffffffffffffffffffffff166108fc479081150290604051600060405180830381858888f19350505050158015610612573d6000803e3d6000fd5b50476005819055507f7f0adbd625267c5ca8b0577820a96e72cf5e7969d97024d67f5cb1865a36f862336040516106499190611100565b60405180910390a1565b61065b610cbf565b73ffffffffffffffffffffffffffffffffffffffff166106796107c8565b73ffffffffffffffffffffffffffffffffffffffff16146106cf576040517f08c379a00000000000000000000000000000000000000000000000000000000081526004016106c6906112c1565b60405180910390fd5b6106d96000610cc7565b565b6000600460009054906101000a900473ffffffffffffffffffffffffffffffffffffffff1673ffffffffffffffffffffffffffffffffffffffff163373ffffffffffffffffffffffffffffffffffffffff161461076d576040517f08c379a000000000000000000000000000000000000000000000000000000000815260040161076490611415565b60405180910390fd5b81600360156101000a81548160ff0219169083151502179055507f8284ce11ddd9702902a8fc6e71a4e25e2dd42f277073fbeeef110cfa334b7b3e33836040516107b8929190611435565b60405180910390a1819050919050565b60008060009054906101000a900473ffffffffffffffffffffffffffffffffffffffff16905090565b600360149054906101000a900460ff1681565b60055481565b6000600460009054906101000a900473ffffffffffffffffffffffffffffffffffffffff1673ffffffffffffffffffffffffffffffffffffffff163373ffffffffffffffffffffffffffffffffffffffff161461089c576040517f08c379a000000000000000000000000000000000000000000000000000000000815260040161089390611415565b60405180910390fd5b81600360146101000a81548160ff0219169083151502179055507fcb9f3bd7bb21f614947616a86983b9f7df445698092b59507a3cdfa03a3284ae6001600460009054906101000a900473ffffffffffffffffffffffffffffffffffffffff16600360009054906101000a900473ffffffffffffffffffffffffffffffffffffffff1660405161092e93929190611554565b60405180910390a160019050919050565b6000600460009054906101000a900473ffffffffffffffffffffffffffffffffffffffff1673ffffffffffffffffffffffffffffffffffffffff163373ffffffffffffffffffffffffffffffffffffffff16146109d1576040517f08c379a00000000000000000000000000000000000000000000000000000000081526004016109c890611415565b60405180910390fd5b600360149054906101000a900460ff16610a20576040517f08c379a0000000000000000000000000000000000000000000000000000000008152600401610a17906115de565b60405180910390fd5b3460065414610a64576040517f08c379a0000000000000000000000000000000000000000000000000000000008152600401610a5b9061164a565b60405180910390fd5b476005819055507f23009393721a27d6803b599bf9f0747edfd97c6fe82522bedeb95c05150c9b403334604051610a9c92919061166a565b60405180910390a16001905090565b60028054610ab89061148d565b80601f0160208091040260200160405190810160405280929190818152602001828054610ae49061148d565b8015610b315780601f10610b0657610100808354040283529160200191610b31565b820191906000526020600020905b815481529060010190602001808311610b1457829003601f168201915b505050505081565b60018054610b469061148d565b80601f0160208091040260200160405190810160405280929190818152602001828054610b729061148d565b8015610bbf5780601f10610b9457610100808354040283529160200191610bbf565b820191906000526020600020905b815481529060010190602001808311610ba257829003601f168201915b505050505081565b610bcf610cbf565b73ffffffffffffffffffffffffffffffffffffffff16610bed6107c8565b73ffffffffffffffffffffffffffffffffffffffff1614610c43576040517f08c379a0000000000000000000000000000000000000000000000000000000008152600401610c3a906112c1565b60405180910390fd5b600073ffffffffffffffffffffffffffffffffffffffff168173ffffffffffffffffffffffffffffffffffffffff161415610cb3576040517f08c379a0000000000000000000000000000000000000000000000000000000008152600401610caa90611705565b60405180910390fd5b610cbc81610cc7565b50565b600033905090565b60008060009054906101000a900473ffffffffffffffffffffffffffffffffffffffff169050816000806101000a81548173ffffffffffffffffffffffffffffffffffffffff021916908373ffffffffffffffffffffffffffffffffffffffff1602179055508173ffffffffffffffffffffffffffffffffffffffff168173ffffffffffffffffffffffffffffffffffffffff167f8be0079c531659141344cd1fd0a4f28419497f9722a3daafe3b4186f6b6457e060405160405180910390a35050565b828054610d979061148d565b90600052602060002090601f016020900481019282610db95760008555610e00565b82601f10610dd257805160ff1916838001178555610e00565b82800160010185558215610e00579182015b82811115610dff578251825591602001919060010190610de4565b5b509050610e0d9190610e11565b5090565b5b80821115610e2a576000816000905550600101610e12565b5090565b6000604051905090565b600080fd5b600080fd5b600080fd5b600080fd5b6000601f19601f8301169050919050565b7f4e487b7100000000000000000000000000000000000000000000000000000000600052604160045260246000fd5b610e9582610e4c565b810181811067ffffffffffffffff82111715610eb457610eb3610e5d565b5b80604052505050565b6000610ec7610e2e565b9050610ed38282610e8c565b919050565b600067ffffffffffffffff821115610ef357610ef2610e5d565b5b610efc82610e4c565b9050602081019050919050565b82818337600083830152505050565b6000610f2b610f2684610ed8565b610ebd565b905082815260208101848484011115610f4757610f46610e47565b5b610f52848285610f09565b509392505050565b600082601f830112610f6f57610f6e610e42565b5b8135610f7f848260208601610f18565b91505092915050565b6000819050919050565b610f9b81610f88565b8114610fa657600080fd5b50565b600081359050610fb881610f92565b92915050565b600073ffffffffffffffffffffffffffffffffffffffff82169050919050565b6000610fe982610fbe565b9050919050565b610ff981610fde565b811461100457600080fd5b50565b60008135905061101681610ff0565b92915050565b6000806000806080858703121561103657611035610e38565b5b600085013567ffffffffffffffff81111561105457611053610e3d565b5b61106087828801610f5a565b945050602085013567ffffffffffffffff81111561108157611080610e3d565b5b61108d87828801610f5a565b935050604061109e87828801610fa9565b92505060606110af87828801611007565b91505092959194509250565b60008115159050919050565b6110d0816110bb565b82525050565b60006020820190506110eb60008301846110c7565b92915050565b6110fa81610fde565b82525050565b600060208201905061111560008301846110f1565b92915050565b61112481610f88565b82525050565b600060208201905061113f600083018461111b565b92915050565b61114e816110bb565b811461115957600080fd5b50565b60008135905061116b81611145565b92915050565b60006020828403121561118757611186610e38565b5b60006111958482850161115c565b91505092915050565b600081519050919050565b600082825260208201905092915050565b60005b838110156111d85780820151818401526020810190506111bd565b838111156111e7576000848401525b50505050565b60006111f88261119e565b61120281856111a9565b93506112128185602086016111ba565b61121b81610e4c565b840191505092915050565b6000602082019050818103600083015261124081846111ed565b905092915050565b60006020828403121561125e5761125d610e38565b5b600061126c84828501611007565b91505092915050565b7f4f776e61626c653a2063616c6c6572206973206e6f7420746865206f776e6572600082015250565b60006112ab6020836111a9565b91506112b682611275565b602082019050919050565b600060208201905081810360008301526112da8161129e565b9050919050565b600060408201905081810360008301526112fb81856111ed565b905061130a602083018461111b565b9392505050565b7f61677265656d656e74206e6565647320746f2062652066756c6c66696c6c656460008201527f206265666f7265206d6f6e65792063616e2062652077697468647261776e0000602082015250565b600061136d603e836111a9565b915061137882611311565b604082019050919050565b6000602082019050818103600083015261139c81611360565b9050919050565b7f4f6e6c7920436c69656e742063616e2061636365737320746869732066756e6360008201527f74696f6e00000000000000000000000000000000000000000000000000000000602082015250565b60006113ff6024836111a9565b915061140a826113a3565b604082019050919050565b6000602082019050818103600083015261142e816113f2565b9050919050565b600060408201905061144a60008301856110f1565b61145760208301846110c7565b9392505050565b7f4e487b7100000000000000000000000000000000000000000000000000000000600052602260045260246000fd5b600060028204905060018216806114a557607f821691505b602082108114156114b9576114b861145e565b5b50919050565b60008190508160005260206000209050919050565b600081546114e18161148d565b6114eb81866111a9565b9450600182166000811461150657600181146115185761154b565b60ff198316865260208601935061154b565b611521856114bf565b60005b8381101561154357815481890152600182019150602081019050611524565b808801955050505b50505092915050565b6000606082019050818103600083015261156e81866114d4565b905061157d60208301856110f1565b61158a60408301846110f1565b949350505050565b7f7465726d73206d75737420626520617070726f76656400000000000000000000600082015250565b60006115c86016836111a9565b91506115d382611592565b602082019050919050565b600060208201905081810360008301526115f7816115bb565b9050919050565b7f6465706f736974206d75737420657175616c20636f7374000000000000000000600082015250565b60006116346017836111a9565b915061163f826115fe565b602082019050919050565b6000602082019050818103600083015261166381611627565b9050919050565b600060408201905061167f60008301856110f1565b61168c602083018461111b565b9392505050565b7f4f776e61626c653a206e6577206f776e657220697320746865207a65726f206160008201527f6464726573730000000000000000000000000000000000000000000000000000602082015250565b60006116ef6026836111a9565b91506116fa82611693565b604082019050919050565b6000602082019050818103600083015261171e816116e2565b905091905056fea26469706673582212200b845a4e7d58c02ae28a8354a1bcdc852891c5aa5925b214241ed3235511447264736f6c634300080a0033",
  "immutableReferences": {},
  "source": "pragma solidity >=0.5.16 <0.9.0;\nimport \"@openzeppelin/contracts/access/Ownable.sol\";\n\ninterface Agreement {\n///@notice creates terms\n    function makeTerms(string memory _terms, string memory _agreementName, uint _cost, address _client) external returns(bool);\n///@notice approves terms\n    function approveTerms(bool _approve) external payable returns(bool);\n///@notice adds payees\n    function deposit() external payable returns(bool);\n///@notice gets contract balance\n    function getBalance() external view returns (uint);\n///@notice fullfills agreement\n    function fulfillAgreement(bool _approve) external returns(bool);\n///@notice withdrawls funds\n    function withdraw() external;\n}\n\n\n/// @title A smart contract for gig fullfillment\n/// @author Alexander Poe\n/// @notice This contract will be used to create agreement with docusign, handle payments and distribution\n/// @notice for simplicity this will just takea astr\n/// @dev All function calls are currently implemented without side effects\n/// @custom:experimental This is an experimental contract use at your own risk.\ncontract gig is Ownable, Agreement {\n    string public terms;\n    string public agreementName;\n    address public contractWriter;\n    bool public termsApproved;\n    bool public agreementFullfilled;\n    address public client;\n    uint public balance = address(this).balance;\n    uint public cost;\n    \n    modifier isClient() {\n        require(\n            msg.sender == client,\n            \"Only Client can access this function\"\n            );\n        _;\n    }\n\n    modifier mustBeFullfilled() {\n        require(\n            agreementFullfilled == true,\n            \"agreement needs to be fullfilled before money can be withdrawn\"\n            );\n        _;\n    }\n\n     modifier termsAgreed() {\n        require(\n            termsApproved,\n            \"terms must be approved\"\n            );\n        _;\n    }\n\n    modifier correctAmount() {\n        require(\n            cost == msg.value,\n            \"deposit must equal cost\"\n            );\n        _;\n    }\n\n    event clientAdded(address _client);\n    event termsCreated(string _at, uint _cost);\n    event termsAgreedOn(string _terms, address _client, address _owner);\n    event logDeposit(address _from, uint _amount);\n    event logFullfilled(address _by, bool _approved);\n    event logWithdraw(address _by);\n\n    /// @notice after creating terms using Docusigns clickwrap, link to terms is submitted\n    /// @param _terms _cost _client terms is the link to the Docusign clickwrap, cost is the specified cost of agreement _client is the client address\n    /// @return true\n    ///  @dev when adding clickwrap link a return address must be added \n    /// @inheritdoc Agreement\n    function makeTerms(string memory _terms, string memory _agreementName, uint _cost, address _client) external override onlyOwner returns(bool) {\n        agreementName = _agreementName;\n        terms = _terms;\n        cost = _cost;\n        client = _client;\n        emit termsCreated(_terms, _cost);\n        return true;\n    }\n    /// @notice client approves terms on variable terms link, redirect link automatically sets agreement to approved\n    /// @param _approve is true when agreement is made\n    /// @return true\n    /// @inheritdoc Agreement\n    function approveTerms(bool _approve) external payable override isClient() returns(bool) {\n        termsApproved = _approve;\n        \n        emit termsAgreedOn(terms, client, contractWriter);\n        return true;\n    }\n\n    /// @notice once terms are agreed upon client makes deposit\n    /// @return true\n    /// @inheritdoc Agreement\n    function deposit() external override payable isClient() termsAgreed() correctAmount() returns(bool) {\n        balance = address(this).balance;\n        emit logDeposit(msg.sender, msg.value);\n        return true;\n    }\n\n    function getBalance() external view override returns (uint) {\n        return address(this).balance;\n    }\n\n    /// @notice client approves fulfillment of agreement\n    /// @param _approve is bool \n    /// @return bool\n    /// @inheritdoc Agreement\n    function fulfillAgreement(bool _approve) external override isClient() returns(bool) {\n        agreementFullfilled = _approve;\n        emit logFullfilled(msg.sender, _approve);\n        return _approve;\n    }\n\n    /// @notice once agreement is fulfilled payees can withdrawl their payment\n    /// @dev the initial contract cost is used to determine payment so values are not altered as payments are withdrawn\n    /// @inheritdoc Agreement\n    function withdraw() external mustBeFullfilled() override {\n        payable(msg.sender).transfer(address(this).balance);\n        balance = address(this).balance;\n        emit logWithdraw(msg.sender);\n    }\n\n    constructor() {\n        contractWriter = owner();\n    }\n  \n}\n",
  "sourcePath": "/Users/alexanderpoe/Desktop/gig_agreement/contracts/contracts/gig.sol",
  "compiler": {
    "name": "solc",
    "version": "0.8.10+commit.fc410830.Emscripten.clang"
  },
  "schemaVersion": "3.4.4",
  "updatedAt": "2022-01-14T21:45:06.922Z",
  "networkType": "ethereum",
  "devdoc": {
    "author": "Alexander Poe",
    "custom:experimental": "This is an experimental contract use at your own risk.",
    "details": "All function calls are currently implemented without side effects",
    "kind": "dev",
    "methods": {
      "approveTerms(bool)": {
        "params": {
          "_approve": "is true when agreement is made"
        },
        "returns": {
          "_0": "true"
        }
      },
      "deposit()": {
        "returns": {
          "_0": "true"
        }
      },
      "fulfillAgreement(bool)": {
        "params": {
          "_approve": "is bool "
        },
        "returns": {
          "_0": "bool"
        }
      },
      "makeTerms(string,string,uint256,address)": {
        "details": "when adding clickwrap link a return address must be added ",
        "params": {
          "_terms": "_cost _client terms is the link to the Docusign clickwrap, cost is the specified cost of agreement _client is the client address"
        },
        "returns": {
          "_0": "true"
        }
      },
      "owner()": {
        "details": "Returns the address of the current owner."
      },
      "renounceOwnership()": {
        "details": "Leaves the contract without owner. It will not be possible to call `onlyOwner` functions anymore. Can only be called by the current owner. NOTE: Renouncing ownership will leave the contract without an owner, thereby removing any functionality that is only available to the owner."
      },
      "transferOwnership(address)": {
        "details": "Transfers ownership of the contract to a new account (`newOwner`). Can only be called by the current owner."
      },
      "withdraw()": {
        "details": "the initial contract cost is used to determine payment so values are not altered as payments are withdrawn"
      }
    },
    "title": "A smart contract for gig fullfillment",
    "version": 1
  },
  "userdoc": {
    "kind": "user",
    "methods": {
      "approveTerms(bool)": {
        "notice": "client approves terms on variable terms link, redirect link automatically sets agreement to approved"
      },
      "deposit()": {
        "notice": "once terms are agreed upon client makes deposit"
      },
      "fulfillAgreement(bool)": {
        "notice": "client approves fulfillment of agreement"
      },
      "getBalance()": {
        "notice": "gets contract balance"
      },
      "makeTerms(string,string,uint256,address)": {
        "notice": "after creating terms using Docusigns clickwrap, link to terms is submitted"
      },
      "withdraw()": {
        "notice": "once agreement is fulfilled payees can withdrawl their payment"
      }
    },
    "notice": "This contract will be used to create agreement with docusign, handle payments and distributionfor simplicity this will just takea astr",
    "version": 1
  }
}